:020000040000FA
:100000000C945D000C9485000C9485000C943512C2
:100010000C9435120C9435120C9485000C948500C8
:100020000C9485000C9485000C9485000C945E1350
:100030000C9485000C9485000C9485000C9485002C
:100040000C94EB110C9485000C94B9110C94931141
:100050000C9485000C9485000C9485000C9485000C
:100060000C943F120C94850000000000240027002F
:100070002A0000000000250028002B0004040404CE
:100080000404040402020202020203030303030342
:10009000010204081020408001020408102001021F
:1000A00004081020000000080002010000030407FB
:1000B00000000000000000001A1411241FBECFEF42
:1000C000D8E0DEBFCDBF12E0A0E0B1E0E4EBF5E3A5
:1000D00002C005900D92A630B107D9F725E0A6E041
:1000E000B2E001C01D92AB34B207E1F710E0CDE5FC
:1000F000D0E004C02197FE010E949E19CC35D107A3
:10010000C9F70E945A150C94D81A0C940000862F37
:10011000E091ED02F091EE02309711F0BA010994EE
:100120000895862FE091EB02F091EC02309711F0E8
:10013000BA0109940895862FE091E902F091EA024C
:10014000309711F0BA0109940895862FE091E702E3
:10015000F091E802309711F0BA0109940895862FC2
:10016000E091E502F091E602309711F0BA010994AE
:100170000895862FE091E302F091E402309711F0A8
:10018000BA0109940895CB01E091F302F091F402D1
:10019000309709F009940895862F642FE091EF02BB
:1001A000F091F002309711F0A90109940895E091BF
:1001B000F102F091F202309709F009940895CF937B
:1001C000DF93FC01A081B181109701F1EC01ED9169
:1001D000FC9111970190F081E02D69EFCD01099517
:1001E00088819981DC01ED91FC910190F081E02DF5
:1001F00062E0099588819981DC01ED91FC91019083
:10020000F081E02D65E0DF91CF910994DF91CF91EE
:100210000895A0919804B0919904ED91FC911197E3
:100220000190F081E02D682FCD0109941F93CF93A9
:10023000DF93182FEB0180915F04909160046817A1
:10024000790760F480915D0490915E04C80FD91F16
:10025000188380E0DF91CF911F910895E0918C0485
:10026000F0918D04309711F481E0F4CF81E0809318
:100270005C048091780490917904099580915F04E1
:1002800090916004C817D90778F7DCCFCF93DF933C
:10029000EC01FB0130E020E0C901880F991F8C17A9
:1002A0009D0778F44081DB014D93BD011197918149
:1002B000979599279795942B9C932F5F3F4F329654
:1002C000EBCFC901DF91CF910895009721F0805CB9
:1002D0009F4F0C94DF000895AF92BF92CF92DF92B0
:1002E000EF92FF920F931F93CF93DF936C017B01EB
:1002F0008B01040F151FEB015E01AE18BF08C0177C
:10030000D10759F06991D601ED91FC910190F081EE
:10031000E02DC6010995892B79F7C501DF91CF91B1
:100320001F910F91FF90EF90DF90CF90BF90AF9013
:100330000895FC01538D448D252F30E0842F90E0EB
:10034000821B930B541710F0CF96089501970895D0
:10035000FC01918D828D981761F0A28DAE0FBF2F99
:10036000B11D5D968C91928D9F5F9F73928F90E0EF
:1003700008958FEF9FEF0895FC01918D828D98175E
:1003800031F0828DE80FF11D858D90E008958FEF9B
:100390009FEF0895FC01918D228D892F90E0805C64
:1003A0009F4F821B91098F73992708958DE793E0E2
:1003B0000E94CA0121E0892B09F420E0822F0895D0
:1003C00080E090E0892B29F00E94D60181110C94E5
:1003D00000000895FC01A48DA80FB92FB11DA35AE8
:1003E000BF4F2C91848D90E001968F739927848F55
:1003F000A689B7892C93A089B1898C918370806478
:100400008C93938D848D981306C00288F389E02D18
:1004100080818F7D80830895EF92FF920F931F93C9
:10042000CF93DF93EC0181E0888F9B8D8C8D9813A7
:100430001AC0E889F989808185FF15C09FB7F894B3
:10044000EE89FF896083E889F989808183708064FF
:1004500080839FBF81E090E0DF91CF911F910F914A
:10046000FF90EF900895F62E0B8D10E00F5F1F4F59
:100470000F731127E02E8C8D8E110CC00FB607FC68
:10048000FACFE889F989808185FFF5CFCE010E94F6
:10049000EA01F1CFEB8DEC0FFD2FF11DE35AFF4F79
:1004A000F0829FB7F8940B8FEA89FB898081806284
:1004B000CFCFCF93DF93EC01888D8823B9F0AA8941
:1004C000BB89E889F9898C9185FD03C0808186FD0F
:1004D0000DC00FB607FCF7CF8C9185FFF2CF80815E
:1004E00085FFEDCFCE010E94EA01E9CFDF91CF91E8
:1004F000089590E0FC01EC55FF4F2491FC01E0577A
:10050000FF4F3491FC01E458FF4FE491EE23C9F012
:10051000222339F0233001F1A8F4213019F12230DF
:1005200029F1F0E0EE0FFF1FEE58FF4FA591B491B7
:100530008FB7F894EC91611126C030953E233C931F
:100540008FBF08952730A9F02830C9F0243049F72B
:10055000809180008F7D03C0809180008F77809391
:100560008000DFCF84B58F7784BDDBCF84B58F7DEE
:10057000FBCF8091B0008F778093B000D2CF809175
:10058000B0008F7DF9CF3E2BDACFCF93DF9390E091
:10059000FC01E057FF4F249184589F4FFC01849148
:1005A0008823C9F090E0880F991FFC01E859FF4F9C
:1005B000A591B491FC01EE58FF4FC591D491611102
:1005C0000DC09FB7F8948C91209582238C938881DD
:1005D000282328839FBFDF91CF910895623051F483
:1005E0009FB7F8943C91822F809583238C93E88168
:1005F0002E2BEFCF8FB7F894EC912E2B2C938FBF2F
:10060000EACF8E3008F08E508770806480937C0033
:1006100080917A00806480937A0080917A0086FDD0
:10062000FCCF809178009091790008953FB7F894BD
:100630008091DF029091E002A091E102B091E2028C
:1006400026B5A89B05C02F3F19F00196A11DB11D2D
:100650003FBFBA2FA92F982F8827BC01CD01620F69
:10066000711D811D911D42E0660F771F881F991F24
:100670004A95D1F708958F929F92AF92BF92CF92F1
:10068000DF92EF92FF926B017C010E9416034B01F7
:100690005C01C114D104E104F104B9F00E94160315
:1006A000681979098A099B09683E7340810591059B
:1006B00080F321E0C21AD108E108F10888EE880E23
:1006C00083E0981EA11CB11CE4CFFF90EF90DF9057
:1006D000CF90BF90AF909F908F90089508955F92B4
:1006E0006F927F928F929F92AF92BF92CF92DF9242
:1006F000EF92FF920F931F93CF93DF935C016901F9
:10070000DA015C90232B19F4CC24CA94DC2C8A01E6
:100710003A01660E771ED0E0C0E0F12CE12C87E0B4
:10072000882E912CF50180819181D8016C910C2E3D
:1007300001C0660F0A94EAF765296F77DC01ED9135
:10074000FC910190F081E02D0995BFEFEB1AFB0AB7
:10075000F801608170E0C4018C1B9D0B02C075958F
:1007600067958A95E2F7562E2196C730D10558F144
:10077000CE14DF0441F1D5018D919C91652D6F77E9
:10078000DC01ED91FC910190F081E02D0995BFEF26
:10079000EB1AFB0A551C5524551C2797E6CFEC1481
:1007A000FD0408F4BFCFDF91CF911F910F91FF900F
:1007B000EF90DF90CF90BF90AF909F908F907F9001
:1007C0006F905F9008950F5F1F4F6016710639F7A5
:1007D000209749F3EC14FD0430F7F50180819181F5
:1007E00061E070E001C0660FCA95EAF761506521CB
:1007F000DC01ED91FC910190F081E02DDF91CF9132
:100800001F910F91FF90EF90DF90CF90BF90AF902E
:100810009F908F907F906F905F9009941F93CF93DC
:10082000DF9300D0CDB7DEB7182F7A83698380912C
:100830005A0490915B040097C9F0DC01ED91FC91A2
:100840000190F081E02D1031B8F461157044A0F4EE
:10085000612F606E099522E030E0AE014F5F5F4F7F
:1008600062E070E08AE594E00E946F030F900F90C1
:10087000DF91CF911F91089560EF099580915A04FF
:1008800090915B04DC01ED91FC910190F081E02DF1
:100890006FE6099580915A0490915B04DC01ED911B
:1008A000FC910190F081E02D612F099522E030E06C
:1008B000AE014F5F5F4F62E070E08AE594E00E9416
:1008C0006F0380915A0490915B04DC01ED91FC91DF
:1008D0000190F081E02D67EF0995C8CFEF92FF926C
:1008E0000F931F93CF93DF93C82F80915A04909159
:1008F0005B040097C9F17A018B01DC01ED91FC9159
:100900000190F081E02D60EF099580915A0490915B
:100910005B04DC01ED91FC910190F081E02D6C2FE6
:100920000995E7010E0D1F1DC017D10759F030E0E2
:1009300020E0AE0161E070E08AE594E00E946F0380
:100940002196F2CF80915A0490915B04DC01ED91E5
:10095000FC910190F081E02D67EFDF91CF911F9125
:100960000F91FF90EF900994DF91CF911F910F911C
:10097000FF90EF900895CF92DF92EF92FF920F9346
:100980001F93CF93DF93FC01E058FF4FE080EE20F0
:1009900009F45CC0EC01C05CDF4FA881B9811097FD
:1009A00009F454C0FC01EF57FF4FC080D180F6011D
:1009B00011810081ED91FC9111970190F081E02D62
:1009C00060EFCD01099588819981DC01ED91FC9161
:1009D0000190F081E02D69E7099588819981DC011A
:1009E000ED91FC910190F081E02D602F09958881B7
:1009F0009981DC01ED91FC910190F081E02D612F56
:100A00000995F12C01E010E00F5F1F4FE016F10691
:100A100059F030E020E0A601400F511F61E070E086
:100A2000CE010E946F03F0CF88819981DC01ED91A6
:100A3000FC910190F081E02D67EFDF91CF911F9144
:100A40000F91FF90EF90DF90CF900994DF91CF91BD
:100A50001F910F91FF90EF90DF90CF900895009736
:100A600011F00C94BB0408952091B702260F332790
:100A7000331F21323105ECF420915303FC0190E047
:100A800080E0243069F082E00895A091B7022191BE
:100A9000AC014B565D4FA40FB52FB11D2C930196A1
:100AA000861798F38091B702680F6093B70280E0D1
:100AB000089581E008951092530381E080935203DA
:100AC00010922D0361E082E10E94790261E083E1EE
:100AD0000E947902E9EBF0E080818E7F8083808143
:100AE0008D7F808388E48093B80085E48093BC0088
:100AF0000895CF93DF9391E0909394028823B9F007
:100B0000C091B800D091BA008091BC008A7B8093DC
:100B1000BC0060E082E10E94790260E083E10E9413
:100B200079020E945B05D093BA00C093B800DF91B0
:100B3000CF9108958F929F92AF92BF92CF92DF9202
:100B4000EF92FF920F931F93CF93DF93D0917C038B
:100B5000D13208F0D7C0182FC0917B030E94160332
:100B60006B017C018091530381116BC082E0809303
:100B70005303109352038FEF80935103109250034D
:100B8000D0934F03ABE5B3E0EFE2F3E080E0D8139E
:100B900091C010922E0380912E03CC0FC82BC093CE
:100BA0002E0380912D03813009F088C010922D030F
:100BB0000E9416036B017C0180912E038093BB0081
:100BC0008091550390915603A0915703B09158031B
:100BD000892B8A2B8B2BA1F00E94160300915503C1
:100BE0001091560320915703309158036C197D09D9
:100BF0008E099F09061717072807390708F442C00E
:100C00008091BC0083FDD8CF85EC8093BC000E940E
:100C100016036B017C0180915303823009F450C0AC
:100C2000809151038F3F09F46FC08091510380324E
:100C300009F46CC080915103803309F469C084E0E9
:100C400026C08091550390915603A0915703B0910F
:100C50005803892B8A2B8B2B09F484CF0E9416030F
:100C60008090550390905603A0905703B09058037E
:100C70006C197D098E099F0986169706A806B90684
:100C800008F070CF809154030E94790585E010929E
:100C90005A0310927C0310925903DF91CF911F9158
:100CA0000F91FF90EF90DF90CF90BF90AF909F900B
:100CB0008F9008959D9191938F5F69CF85EEA5CF19
:100CC0008091550390915603A0915703B09158031A
:100CD000892B8A2B8B2B09F49ECF0E94160300913F
:100CE00055031091560320915703309158036C1906
:100CF0007D098E099F09061717072807390708F08D
:100D00008ACFC0CF81E0C3CF80E0C1CF82E0BFCF28
:100D100083E0BDCF089508950895E09193028091F6
:100D20009202E81730F4F0E0EE58FD4F808190E039
:100D300008958FEF9FEF0895909193028091920212
:100D40002FEF3FEF981748F4E92FF0E0EE58FD4FF2
:100D5000208130E09F5F90939302C90108958091B4
:100D6000920290919302891B990B0895CF92DF9282
:100D7000EF92FF920F931F93CF93DF937C01CB01F0
:100D80008A0120915903222389F0EB016B01C40EE3
:100D9000D51ECC15DD0569F06991D701ED91FC9167
:100DA0000190F081E02DC7010995F3CF642F0E94D7
:100DB0003405C801DF91CF911F910F91FF90EF9003
:100DC000DF90CF900895CF93DF931F92CDB7DEB71A
:100DD0006983209159032223F9F020917C0320326A
:100DE00058F021E030E0FC013383228390E080E082
:100DF0000F90DF91CF91089580915A03E82FF0E092
:100E0000E55AFC4F998190838F5F80935A038093BA
:100E10007C0381E090E0ECCF61E0CE0101960E947E
:100E20003405F7CF90E080E00895DF92EF92FF92D3
:100E30000F931F93CF93DF93EC01D62E7A01890194
:100E400088818C3008F067C061E08D2D0E94C5025A
:100E50008881282F30E0F901EE0FFF1FE20FF31F0A
:100E6000EA51FB4F9D2D9F736081607C692B6083ED
:100E700020E232E02E193F0937FF02C02D5F3F4FBD
:100E80003595279535952795298320E639E0201B50
:100E9000310B37FF02C02D5F3F4F359527953595B4
:100EA00027952A832CE0622F0E949219829FB0011D
:100EB000112430E020E0AB01420F531FFA01EE0F86
:100EC000FF1FE40FF51FEA51FB4F908196FD16C0FE
:100ED0002F5F3F4F2C30310571F781110FC01092F9
:100EE000800082E08093810010928500109284003F
:100EF000B19A80916F00826080936F00E8818E2F9D
:100F000090E0FC01EE0FFF1FE80FF91FEA51FB4FC5
:100F10008081806480838881DF91CF911F910F91C0
:100F2000FF90EF90DF900895CF938630B0F421E0EA
:100F300030E0082E02C0220F331F0A94E2F74091DE
:100F4000270350912803672B51F4209530952423D3
:100F500035233093280320932703CF910895242B22
:100F6000352B309328032093270390917002911121
:100F7000F4CFC82F0E940103BC018C2FCF910C9499
:100F80000E045F926F927F928F929F92AF92BF9268
:100F9000CF92DF92EF92FF920F931F93CF93DF9345
:100FA000833008F061C0D1E0D80FDD0FDD0FDD0F19
:100FB0005D2ED53110F044E1542EC62F082FD850A5
:100FC0008D2E912CC401880F991F9C01265E3B4FEA
:100FD0005901D12CC12C10E077247394D515C8F594
:100FE0008EEF8D0F8231F8F4F601E80DF91DE3560E
:100FF000FB4F90819230B8F48C2F87216624639444
:10100000811101C0612C7601EE0CFF1C913089F436
:10101000172937E9E30EF11CF501EE0DFF1D862DB2
:1010200090E091838083770CDF5F8FEFC81AD80A36
:10103000D5CF882371F3F701E956FF4FEA0DFB1D69
:1010400080819181019729F362E08D2F0E94C50272
:10105000E0CF011119C0F8948BB16C2F68276C7F19
:10106000612368276BB97894DF91CF911F910F911D
:10107000FF90EF90DF90CF90BF90AF909F908F90B8
:101080007F906F905F9008950130D1F4C123F89460
:1010900095B1812F8F73809589239C2F9F73892B06
:1010A00085B988B1612F6295669566956370609584
:1010B0006823C295C695C695C370C62BC8B9D3CF51
:1010C0001F70F89498B1812F880F880F809589231D
:1010D000C123CC0FCC0FC82BF1CF8F929F92AF9230
:1010E000BF92CF92DF92EF92FF920F931F93CF9315
:1010F000DF93EB01843108F098C0082F10E0F8016D
:10110000E356FB4F9081933009F49CC0943009F072
:101110008CC08250823108F081C0F801E85AFD4F3E
:10112000C080D12C7601EE0CFF1C4B01603282E0B6
:1011300078070CF03EC0F701EC0DFD1DED5DFA4F98
:101140008181A8E88A2E912C881A910887FD9394B2
:10115000880C991C880C991C092C000CAA08BB0847
:10116000828128E532E0281B310987FD3395220F63
:10117000331F220F331F032E000C440B550B28196D
:1011800039094A095B09DB01653B710514F0A4EBE1
:10119000B0E0B7FF02C0B0E0A0E00E94591924EB14
:1011A00030E040E050E00E942F19820E931EA41EF2
:1011B000B51EF701EC0DFD1DED5DFA4F20812C30C1
:1011C00068F5318188E890E0831B910937FD93959C
:1011D000880F991F880F991F881699067CF0328115
:1011E00088E592E0831B910937FD9395880F991F3D
:1011F000880F991F881699060CF4C4010297880F6E
:10120000991F4FB7F89430E0F901EE0FFF1FE20F7E
:10121000F31FEA51FB4F928381834FBF000F111FD1
:10122000F801EF54FB4FD183C083DF91CF911F9121
:101230000F91FF90EF90DF90CF90BF90AF909F9075
:101240008F9008957B01D82F833041F08BEF800F72
:10125000823020F087EF800F833058F461E08D2FCB
:101260000E94C502E114F10461F460E08D2F0E9438
:101270007902000F111FF801EF54FB4FF182E08259
:10128000D4CF8FEFE816F10411F461E0EFCFF8014D
:10129000EC55FF4FE491E33021F148F4E130B9F02F
:1012A000E230D1F080E8E816F1047CF7DECFE730D9
:1012B00011F1E83041F1E430A9F7809180008062BB
:1012C00080938000F0928B00E0928A00D2CF84B5A8
:1012D000806884BDE7BCCDCF84B5806284BDE8BCA6
:1012E000C8CF80918000806880938000F092890050
:1012F000E0928800BECF8091B00080688093B000FB
:10130000E092B300B6CF8091B00080628093B000CD
:10131000E092B400AECF9EEF980F923180F4E82FA8
:10132000F0E0DF01A356BB4F9C91913041F4EE0FEA
:10133000FF1FEF54FB4F608371830C947902089573
:10134000FF920F931F93CF93DF9300D0CDB7DEB7FB
:10135000082F10E0F801EB50FD4F9081F62EF92296
:1013600004591D4F411104C0F80190819F1511F1DE
:101370002F2D30E03A832983A0915A04B0915B0469
:101380001097B1F0682F6F706069ED91FC91119723
:101390000190F081E02DCD01099522E030E0AE0111
:1013A0004F5F5F4F62E070E08AE594E00E946F0358
:1013B000F801F0820F900F90DF91CF911F910F9164
:1013C000FF900895833040F5282F30E0F901E85070
:1013D000FD4F6083672B01F12B503D4FF901608178
:1013E000811106C099B19C7F692341E00C94A0094A
:1013F000813049F493B126B19F73F0E42F9F90019F
:101400001124922BF1CF26B130E0359527953595F3
:1014100027952F706223E9CF0895A82FB0E0A85A2E
:10142000BD4F9C91292F30E0F901EE0FFF1FE20F15
:10143000F31FED5DFA4FE0812E2F30E0F901EE0F42
:10144000FF1FE20FF31FEA51FB4F80818F7B8083E8
:1014500080915602981308C0992319F091509093E7
:1014600056028FEF8C9308958823D9F3E0915702A9
:10147000EF5FE0935702F0E0EB5FFD4F9083F1CF19
:10148000FC0101900020E9F73197BF01681B790B3F
:10149000AC0181E70C946E04CF93DF93DB01909154
:1014A00056029C3078F530915702682F70E0FB01AE
:1014B000E85AFD4F3323E1F0C32FD0E0CB5FDD4F7F
:1014C00088818083315030935702808123E0829F4E
:1014D000C00111248D5D9A4F1A161B0674F4141660
:1014E00015065CF49A01AD01DF91CF910C941507BC
:1014F00090839F5F90935602E8CF20E639E040E268
:1015000052E0F2CF89E391E0DF91CF910C94400A51
:10151000CF93DF93EC0160E08E810E94790261E05D
:101520008E810E94790260E08E810E9479028BE8B0
:1015300091E00197F1F7DF91CF910895CF92DF927B
:10154000EF92FF920F931F93CF93DF936C017C0177
:1015500087E0E80EF11CD0E0C0E0062F10E0B801F3
:101560000C2E02C0759567950A94E2F76170F70139
:1015700081917F010E9479022196C430D10579F7CB
:10158000C601DF91CF911F910F91FF90EF90DF90F7
:10159000CF900C94880ACF92DF92EF92FF920F9334
:1015A0001F93CF93DF93EC01F62E642F8C810E9462
:1015B00079028D818F3F19F060E00E9479020F2D32
:1015C00010E08F8584FF25C06E0187E0C80ED11C16
:1015D000F12CE12CB8010E2C02C0759567950A9488
:1015E000E2F76170F60181916F010E947902FFEFCD
:1015F000EF1AFF0A88E0E816F10461F7CE01DF91E7
:10160000CF911F910F91FF90EF90DF90CF900C94AE
:10161000880AB80184E0759567958A95E1F7CE014F
:101620000E949E0A6F2DCE01DF91CF911F910F91E5
:10163000FF90EF90DF90CF900C949E0A40E0682FCF
:101640008BE095E00C94CB0ACF93DF93823029F4A2
:1016500090911A05986090931A0580931E05109238
:101660001F0580E48093200580E18093210580E5BB
:101670008093220561E080910F050E94C502809150
:1016800010058F3F19F061E00E94C50261E0809172
:1016900011050E94C502CBE0D5E09E012B503540DC
:1016A00080911A0584FD0BC084E090E021962817F4
:1016B000390744F461E08E810E94C502EECF88E0D4
:1016C00090E0F4CF8BE39DE00197F1F760E080912B
:1016D0000F050E94790260E0809111050E94790255
:1016E000809110058F3F19F060E00E94790280918F
:1016F0001A0584FD39C063E08BE095E00E949E0AE4
:10170000CBE4D6E4CE010197F1F763E08BE095E0FE
:101710000E949E0A2197F1F763E08BE095E00E941A
:101720009E0A83E592E00197F1F762E08BE095E095
:101730000E949E0A80911A0580620E941E0B84E01E
:1017400080931B058CE00E941E0B81E00E941E0B03
:101750008BE39FE10197F1F782E080931C0586E01F
:10176000DF91CF910C941E0B80620E941E0B8BE4C4
:1017700096E40197F1F780911A0580620E941E0B92
:1017800083E592E00197F1F780911A0580620E944B
:101790001E0BD0CFCF93DF93EC0180915402909138
:1017A0005502892BE1F0109255021092540281E00B
:1017B0000E941E0B8BE39FE10197F1F7209721F127
:1017C000FE0101900020E9F73197AF014C1B5D0B42
:1017D000BE018BE095E0DF91CF910C946C0181E02C
:1017E00090E09093550280935402E0911E05E23000
:1017F00048F4E150F0E0E55FFA4F848980680E9488
:101800001E0BDCCFE1E0F6CFDF91CF91089541E0F0
:101810000E94CB0A81E090E008959F92AF92BF9220
:10182000CF92DF92EF92FF920F931F93CF93DF93AC
:10183000C82ED12CE601C65EDB4FFE01ED57FF4FEF
:1018400090819F3709F49FC0963061F490916F02A8
:10185000992341F06630710529F010926F029FEFD5
:10186000909300017B01182F0EEF080F023108F54D
:1018700064307105F1F0F601E85AFD4F80818C303B
:10188000C0F490E0FC01EE0FFF1FE80FF91FED5DC3
:10189000FA4FE0818E2F90E0FC01EE0FFF1FE80F62
:1018A000F91FEA51FB4F808186FF03C0812F0E9400
:1018B0000D0A52EF952E910E85E0891558F061E0E2
:1018C00070E032E0E316F10411F070E060E0892D81
:1018D0000E9494070231C8F4E12FE695E695E6955B
:1018E000F0E0EB50FD4F2081312F377081E090E028
:1018F00001C0880F3A95EAF7E114F10421F03BE0CA
:10190000E316F10401F5822B80835601AA0CBB1C5F
:10191000F501EF54FB4F118210828CE0E816F104C0
:1019200008F0CBC0F701E956F34F0C949E19B70CA1
:10193000E40CA60CFB0C1A0D5D0D510D5D0D5D0D3B
:101940005D0DC30CCF0C80958223DECF35E03915B9
:10195000D0F0023120F460E0812F0E94C502CD5703
:10196000DF4F88818F3779F082E088830CC00231A5
:1019700050F460E0812F0E94C502CD57DF4F88816F
:101980008F3709F01882DF91CF911F910F91FF904F
:10199000EF90DF90CF90BF90AF909F90089502316D
:1019A00090F762E0812F0E94C502CD57DF4F8881FA
:1019B0008F3711F08BE08883F501EF54FB4F81E006
:1019C00090E091838083DFCF0231E8F6FE01ED578E
:1019D000FF4F8081833021F460E0812F0E947902E3
:1019E00061E0812F0E94C502CD57DF4F88818F377C
:1019F00051F281E0BACF133049F08BEF810F823082
:101A000028F087EF810F833008F0BDCF61E0812F90
:101A10000E94C50261E0812F0E94C50260E0812F13
:101A20000E947902CD57DF4F88818F3709F4ABCF01
:101A300083E09BCF023108F0A6CFCD57DF4F8881DE
:101A40008F3711F084E08883F601E85AFD4F8081DA
:101A50008F3FA9F090E0FC01EE0FFF1FE80FF91F88
:101A6000ED5DFA4FE0818E2F90E0FC01EE0FFF1F3D
:101A7000E80FF91FEA51FB4F808186FD84CF4FEFBD
:101A80005FEF6FEF7FEF812FDF91CF911F910F916C
:101A9000FF90EF90DF90CF90BF90AF909F900C940D
:101AA0004C0A1251123008F06ECFCD57DF4F8881AB
:101AB0008F3709F468CF86E058CF8DE491E0DF914D
:101AC000CF911F910F91FF90EF90DF90CF90BF903B
:101AD000AF909F900C94400A0F931F93CF93DF9386
:101AE00081E08093700280916F02882329F0109228
:101AF0006F028FEF809300011092F8021092F502AE
:101B000010926C021092F9021092F60210926D027D
:101B10001092FA021092F70210926E0208E512E09B
:101B2000C0E0DFEF82EF8C0F62E070E0863030F0D3
:101B30008EEF8C0F823128F461E070E08C2F0E94D0
:101B40000D0CF801D1938F01CF5FC43159F710927A
:101B500028031092270310925702109256021092F7
:101B60007002DF91CF911F910F9108954F925F9274
:101B70006F927F928F929F92AF92BF92DF92EF927D
:101B8000FF920F931F93CF93DF93D82E8B01D42F07
:101B9000C22F6F3F760709F490C081E0809359030C
:101BA000D0927B0310925A0310927C038AED94E04A
:101BB0000E94E3068C2F0E949A0580915202909118
:101BC00053028230910538F0880F991F880F991FB2
:101BD00005970197F1F70E9416034B015C01809174
:101BE000530381116CC0CD2FD13208F0C0E281E0E7
:101BF00080935303809352039FEF9093510310926D
:101C000050039C0F90934F0380932E0390912E03CB
:101C10008D2D880F892B80932E0380912D03813089
:101C200009F09EC010922D030E9416034B015C0127
:101C300080912E038093BB008091550390915603B1
:101C4000A0915703B0915803892B8A2B8B2BA1F0BD
:101C50000E9416034090550350905603609057031E
:101C600070905803681979098A099B094616570626
:101C70006806790608F444C08091BC0083FDD8CF83
:101C800085EC8093BC000E9416034B015C0180919F
:101C90005303813009F466C0809150038C1710F40F
:101CA000C0915003AFE2B3E0E2E7F2E080E08C17CE
:101CB00061F19D9191938F5FFACF00E08CCF80917D
:101CC000550390915603A0915703B0915803892B67
:101CD0008A2B8B2B09F483CF0E9416034090550367
:101CE0005090560360905703709058036819790913
:101CF0008A099B09461657066806790608F06FCFD1
:101D0000809154030E947905C0E010929302C09321
:101D10009202ED2EF12C8C2F90E0E816F9060CF0D3
:101D200043C08EE591E00E94400AD09212020093D7
:101D3000130202E112E0C801825192408E159F0504
:101D4000D4F50F5F1F4F90919202809193029817E4
:101D500091F18AED94E00E949C06F8018183EBCF1B
:101D600085EE8FCF8091550390915603A091570334
:101D7000B0915803892B8A2B8B2B09F488CF0E94B2
:101D8000160340905503509056036090570370908F
:101D90005803681979098A099B0946165706680687
:101DA000790608F074CFACCF8E159F050CF0BDCF2F
:101DB0008BE791E0B8CFDE5F6D2F70E042E152E03B
:101DC00087E7DF91CF911F910F91FF90EF90DF9008
:101DD000BF90AF909F908F907F906F905F904F904B
:101DE0000C946E04EF92FF920F931F93CF93DF93A7
:101DF0008956823108F033C0EA01162FE82FF0E04F
:101E0000EC5FF04F0C949E194A112F0FB1102F0F59
:101E100009112F0F8F1033102F0F2F0F2F0F2F0F90
:101E20002F0F160F2F0FF70F2F0F7910998195FF96
:101E30000AC087E991E0DF91CF911F910F91FF9048
:101E4000EF900C94400A888131E096FB222720F91C
:101E5000232798719830D1F148F49923A9F0DF91A4
:101E6000CF911F910F91FF90EF900895903109F459
:101E70004CC09831A1F72091000112160CF472C0E9
:101E80008FEF80930001EBCF3093590380937B0356
:101E900010925A0310927C0302E0011778F4FE01BD
:101EA000E00FF11D61816795662767958081680F56
:101EB0008AED94E00E94E3060E5FEFCF81E00E947E
:101EC0009A0583E191E00197F1F7C9CF9A814B819F
:101ED0006630A1F430E8439FB0011124690F711DF1
:101EE0004D814795442747959C81490FDF91CF91BC
:101EF0001F910F91FF90EF900C94B60D47954427DA
:101F00004795490F6FEF7FEFF1CFE0910001E73088
:101F10001CF087EB91E08FCF3A819B816630D9F43A
:101F200060E8969FA0011124430F511D9D81979554
:101F3000992797953C81930FEF5FE093000135E07F
:101F4000E302F0011124E150FD4F8083528341836D
:101F50009383248384CF979599279795930F4FEF79
:101F60005FEFEACF90E0622F022E000C770B35E096
:101F7000492F50E06417750764F0349FF001359FD6
:101F8000F00D1124E150FD4F4081481719F09F5F7B
:101F9000EFCF90E085E0492F50E0641775071CF102
:101FA0009830F8F4FA0131968E9FD0018F9FB00DD2
:101FB0001124A150BD4F3C91849FF001859FF00DED
:101FC0001124E150FD4F308311964D915C91129791
:101FD0005283418313963C911397338314963C911B
:101FE00034839F5FD8CF21502093000138CF6230D7
:101FF00078F0898160E8869F900111248881820FA2
:10200000932F911D009721F09093530280935202D9
:1020100080916F02811123CFC0E08EEE8C0F823051
:1020200028F466E070E08C2F0E940D0CCF5FC43165
:10203000A1F781E080936F021092930210929202B6
:1020400010925A0310927C030E945B058AE896E086
:102050009093B6028093B5028BE896E09093BA0213
:102060008093B902FCCE653008F4F9CE18818EEF6A
:10207000810F823108F0F3CE0981EA80FB80CC81A8
:10208000E12FF0E0E85AFD4F80818C30C0F490E001
:10209000FC01EE0FFF1FE80FF91FED5DFA4FE08125
:1020A0008E2F90E0FC01EE0FFF1FE80FF91FEA51A1
:1020B000FB4F808186FF03C0812F0E940D0A80E8BC
:1020C000C89FA00111244F0D511D90E8E99EB00159
:1020D0001124600F711D812F0E944C0A64E070E092
:1020E000812FDF91CF911F910F91FF90EF900C9472
:1020F0000D0C623008F4B3CE8981E0E88E9F900128
:1021000011248881820F932F911D009729F09093BD
:10211000020180930101A3CE81E090E0F8CF62300C
:1021200008F49DCE698170E0123091F08A81F0E868
:102130008F9FC0011124682B792B133049F08B81BC
:1021400090E090E4899F902D88271124682B792BAB
:102150008881DF91CF911F910F91FF90EF900C94A8
:102160006D0880EF0E9409018CE60E940901CEEF04
:1021700084EF8C0F863020F582E00E9409018AE00E
:102180000E9409018DEF8C0F8230E0F089EF8C0FF7
:102190008330F0F417C0C23158F780E00E94090183
:1021A00081E00E9409018BE00E94090181E00E9408
:1021B000090181E00E94090181E00E940901D8CF54
:1021C000C13001F783E00E94090188E00E94090103
:1021D000C23130F484E00E9409018EE00E940901BE
:1021E00080EF8C0F823030F486E00E94090181E09C
:1021F0000E9409018FE70E940901CF5FC23159F6A1
:1022000087EFDF91CF911F910F91FF90EF900C948A
:102210000901662309F423CEC88180EF0E940901D9
:102220008EE60E9409018C2F0E940901C43140F7FB
:10223000D0E0FE01E356FB4F80810E940901CC0FE4
:10224000DD1F8E010F541B4FF80180818F770E9494
:102250000901F801808191819C012078232B39F0BC
:10226000880F892F881F990B8F770E940901CF54FF
:10227000DB4F888199819C012227307C232B09F434
:10228000BFCF990F880B990F982F881F8F770E94C7
:102290000901B6CF80EF0E9409018AE60E94090178
:1022A000C2EF8FE7C63008F48C2F0E940901CF5F80
:1022B000C630B9F7A5CF85ED8093BC00809155035A
:1022C00090915603A0915703B09158030796A11D12
:1022D000B11D23E0B695A795979587952A95D1F7D7
:1022E0002091BC0024FD03C0109253030895409137
:1022F0005503509156036091570370915803452B35
:10230000462B472B69F30097A105B10541F025E362
:102310002A95F1F700000197A109B109E1CF809159
:1023200054030C9479051F920F920FB60F9211244B
:102330002F933F934F935F936F937F938F939F93CD
:10234000AF93BF93EF93FF938DE793E00E94EA0171
:10235000FF91EF91BF91AF919F918F917F916F917D
:102360005F914F913F912F910F900FBE0F901F9053
:1023700018951F920F920FB60F9211242F938F93DF
:102380009F93EF93FF93E0918D03F0918E038081F3
:10239000E0919303F091940382FD1BC090818091A2
:1023A00096038F5F8F7320919703821741F0E0911E
:1023B0009603F0E0E358FC4F958F80939603FF91CE
:1023C000EF919F918F912F910F900FBE0F901F90C3
:1023D00018958081F4CF1F920F920FB60F9211249F
:1023E0002F933F938F939F93AF93BF938091FB0263
:1023F0009091FC02A091FD02B091FE023091DE02AC
:1024000023E0230F2D3758F50196A11DB11D209310
:10241000DE028093FB029093FC02A093FD02B09336
:10242000FE028091DF029091E002A091E102B09162
:10243000E2020196A11DB11D8093DF029093E0029C
:10244000A093E102B093E202BF91AF919F918F916F
:102450003F912F910F900FBE0F901F90189526E877
:10246000230F0296A11DB11DD2CF1F920F920FB65E
:102470000F9211240F900FBE0F901F9018951F926E
:102480000F920FB60F9211242F933F934F935F93A8
:102490006F937F938F939F93AF93BF93EF93FF932C
:1024A0008091B900887F803609F44AC0F0F58832FF
:1024B00009F4A7C018F5803109F49BC0B8F488234B
:1024C00009F4F9C0883009F494C0FF91EF91BF91ED
:1024D000AF919F918F917F916F915F914F913F91BC
:1024E0002F910F900FBE0F901F901895883109F40F
:1024F00088C0803251F78093510314C0803409F4AE
:102500009DC040F48033B9F38833F9F680935103CA
:1025100085ECB0C0803509F485C0883509F496C0D3
:10252000883499F60E945B11D0CF883909F48CC0A9
:1025300038F5883729F050F4883611F0803729F6BD
:1025400083E0809353031092DB0257C0883809F46C
:102550007BC0803919F0803809F0B7CF8091DB0259
:10256000803208F071C0E091DB0281E08E0F809331
:10257000DB028091BB00F0E0E554FD4F80833DC05D
:10258000803B39F0E0F4803A09F479C0883A09F0E8
:102590009CCF84E0809353031092B8021092B7024C
:1025A000E091B502F091B60209958091B7028111D0
:1025B0000FC081E08093B7021092950209C0803C61
:1025C00009F4A6CF883C09F4A3CF883B09F07DCF5E
:1025D000E091B80281E08E0F8093B802F0E0EB56F4
:1025E000FD4F80818093BB009091B8028091B7022B
:1025F00029C080912E038093BB0085EC8093BC00A2
:1026000064CF9091500380914F03981758F5E09153
:10261000500381E08E0F80935003F0E0E15DFC4FAA
:102620008081E9CFE091500381E08E0F80935003C9
:102630008091BB00F0E0E15DFC4F808390915003FE
:1026400080914F039817C8F285E8D8CFE0915003E6
:1026500081E08E0F809350038091BB00F0E0E15D3C
:10266000FC4F80838091520381115CCF81E0809385
:102670002D0384EA8093BC001092530326CF85EC8F
:102680008093BC00109253038091DB02803230F4BF
:10269000E091DB02F0E0E554FD4F10826091DB0237
:1026A00070E0E091B902F091BA028BEB92E00995EB
:1026B0001092DB020ACF1092510334CF1F920F9277
:1026C0000FB60F9211242F933F934F935F936F9305
:1026D0007F938F939F93AF93BF93CF93DF93EF93AA
:1026E000FF9380917102C0910A05D0E087FF24C05A
:1026F0001092850010928400809171028F5F809308
:10270000710280917102082E000C990B8C179D07A5
:1027100024F4809171028C30C4F1809184009091F6
:102720008500049680349C4908F47AC08091840026
:1027300090918500049676C080917102082E000C5D
:10274000990B8C179D07C4F6E09171028E2FEE0F46
:10275000990BFC01EE0FFF1FE80FF91FEA51FB4F29
:10276000808186FFC9CFE09171028E2FEE0F990B09
:10277000FC01EE0FFF1FE80FF91FEA51FB4F8081AC
:1027800060E08F730E947902B7CF2091840030916E
:102790008500E09171028E2FEE0F990BFC01EE0F78
:1027A000FF1FE80FF91FEA51FB4F81819281820FD1
:1027B000931F9093890080938800E09171028E2F7F
:1027C000EE0F990BFC01EE0FFF1FE80FF91FEA5106
:1027D000FB4F808186FF11C0E09171028E2FEE0FBA
:1027E000990BFC01EE0FFF1FE80FF91FEA51FB4F99
:1027F000808161E08F730E947902FF91EF91DF91F8
:10280000CF91BF91AF919F918F917F916F915F9188
:102810004F913F912F910F900FBE0F901F901895E1
:1028200080E49CE990938900809388008FEF8093E7
:102830007102E3CF1092800310927F0348EE53E0C1
:1028400060E070E0409381035093820360938303C0
:10285000709384038DE091E090937E0380937D03D9
:1028600085EC90E090938A038093890384EC90E058
:1028700090938C0380938B0380EC90E090938E0375
:1028800080938D0381EC90E09093900380938F036D
:1028900082EC90E0909392038093910386EC90E019
:1028A000909394038093930310929603109297034E
:1028B00010929803109299038AE194E010925B04BD
:1028C00010925A0490935E0480935D0420E430E0FB
:1028D0003093600420935F041092610410926204AC
:1028E00010926404109263041092650410926704BD
:1028F00010926604109269041092680410926B049E
:1029000010926A0410926D0410926C0410926F047D
:1029100010926E041092710410927004109273045D
:1029200010927204109279041092780410927B0431
:1029300010927A0410927D0410927C0410927F040D
:1029400010927E0410928D0410928C0410925C04FC
:1029500010929A0410929C0410929B041092D90435
:1029600027E830E0309381042093800421E930E0AF
:1029700030938304209382042BE930E03093850464
:102980002093840425EA30E0309387042093860462
:102990002FEA30E0309389042093880429EB30E05B
:1029A00030938B0420938A0423EC30E030938F041F
:1029B00020938E042CEC30E030939104209390040B
:1029C0002FE235E0309393042093920490937504A2
:1029D0008093740425E631E03093950420939404A9
:1029E000909377048093760487ED90E0909397041A
:1029F000809396041092DD041092DC044093DE0470
:102A00005093DF046093E0047093E1048FE191E060
:102A10009093DB048093DA04E3E2F5E02FEF48EBD8
:102A20005BE080910A058C3008F042C091E0980F7D
:102A300090930A05808390E0DC01AA0FBB1FA80FCA
:102A4000B91FAA51BB4F12965C934E9311973396C0
:102A500085E0E734F80729F710920E0510920D056E
:102A600081E391E090930C0580930B058CE08093BB
:102A70000F058FEF809310058BE08093110585E0A3
:102A80008093120584E08093130583E080931405FE
:102A900082E080931505109216051092170510928A
:102AA00018051092190510921A0581E00C94240B58
:102AB0002083CDCF789484B5826084BD84B5816055
:102AC00084BD85B5826085BD85B5816085BD8091F9
:102AD0006E00816080936E00109281008091810071
:102AE0008260809381008091810081608093810069
:102AF000809180008160809380008091B10084602B
:102B00008093B1008091B00081608093B00080918B
:102B10007A00846080937A0080917A00826080934A
:102B20007A0080917A00816080937A0080917A00A7
:102B3000806880937A001092C10080E180939A04AB
:102B400080919B0490919C040E94401AC0919A0429
:102B5000D0E0CE0101960E94A41990939C0480932A
:102B60009B04FC01EC0FFD1F108212E0DC011C93A2
:102B700025E011962C93AE014250510966EF71E0A9
:102B800002960E94C91A82E00E94240B8DE698E00A
:102B90009093EE028093ED0281EC97E09093EC022B
:102BA0008093EB0284E997E09093EA028093E90234
:102BB00082EE99E09093E8028093E7028DE09CE03A
:102BC0009093E6028093E5028BE899E09093E4020B
:102BD0008093E30282EF9EE09093F0028093EF02F5
:102BE0008CE69DE09093F2028093F1028AEC9BE0E8
:102BF0009093F4028093F302E0918D03F0918E03A1
:102C00001083E0918903F0918A031082E0918B0395
:102C1000F0918C038FEC808310929503E0919103E7
:102C2000F091920386E08083E0918F03F09190030E
:102C3000808180618083E0918F03F0919003808197
:102C400088608083E0918F03F09190038081806899
:102C50008083E0918F03F091900380818F7D80834A
:102C60008091D90481114FC061E08DE00E94C502BE
:102C700062ED70E080E090E00E943B0361E08DE057
:102C80000E94790268E270E080E090E00E943B03DD
:102C900060E08DE00E94790262ED70E080E090E0FB
:102CA0000E943B0361E08DE00E94790268E270E0DF
:102CB00080E090E00E943B0360E08DE00E9479029A
:102CC0006AEF70E080E090E00E943B03C5E062EDB7
:102CD00070E080E090E00E943B0361E08DE00E94A4
:102CE000790268E270E080E090E00E943B0360E0DF
:102CF0008DE00E947902C15051F76DE770E080E0ED
:102D000090E00E943B038DE793E0909399048093B9
:102D1000980490935B0480935A048AE594E00E949F
:102D2000DF008AE194E00E94BB040E946C0D25E064
:102D3000D22EC0E0D0E0CC24C39402E010E0EE2418
:102D4000E394F12C8091F802882349F069B18091D5
:102D5000F50268236C7F40E080E00E94A00980912A
:102D6000F902882379F063B186B16F73B0E48B9F69
:102D7000C0011124682B8091F602682340E081E0B5
:102D80000E94A0098091FA02882359F066B18091CF
:102D9000F7028F7066956695682340E082E00E9496
:102DA000A0098091980490919904DC01ED91FC9127
:102DB0000084F185E02D0995892B09F4CEC180911D
:102DC000980490919904DC01ED91FC910284F385C3
:102DD000E02D09959C018F3F980719F3982F80915A
:102DE0006504882309F492C0973F09F07EC01092D1
:102DF0006504A0915D04B0915E046C916137C1F1EE
:102E0000693709F05CC0E0919204F0919304309727
:102E100041F280916604909167048330910560F4DB
:102E200030E020E050E040E070E060E08091740429
:102E3000909175040995B5CFBD016D5F7F4F0397E4
:102E40000E944601BC016D5F7F4F80E00E94160129
:102E5000E0915D04F0915E049F012D5F3F4F428140
:102E600050E0618170E0E0919204F0919304DECF34
:102E700080918E0490918F04892B09F492CFBD012B
:102E80006F5F7F4F809166049091670401970E9465
:102E90004601BC016F5F7F4F80E00E941601609188
:102EA0005D0470915E046F5F7F4FE0918E04F0913E
:102EB0008F0480917A0490917B04099572CFE09100
:102EC0009004F0919104309709F46BCF9D012F5F2E
:102ED0003F4F4091660450916704415051098091E1
:102EE0007C0490917D0409955CCF6091660470919B
:102EF0006704822F0E9416018091660490916704F6
:102F0000019690936704809366044BCF60916304AD
:102F1000709164046115710509F4B1C027FDAFC05B
:102F2000615071097093640460936304822F0E945E
:102F300016018091630490916404892B09F031CFCC
:102F400080916104882309F42CCF803D09F483C06B
:102F500040F4803949F1803C09F469C01092610461
:102F600020CF843FE1F1853F09F44DC0803EB1F7A9
:102F7000E0918004F0918104309781F3A0915D0489
:102F8000B0915E044C9120E8429FC001112411963B
:102F90004C91480F592F511D609162048091680433
:102FA000909169040995DACFE0918204F09183044D
:102FB0003097A1F2A0915D04B0915E044C9120E89D
:102FC000429FC001112411964C91480F592F511D59
:102FD0006091620480916A0490916B04E3CFE09168
:102FE0008804F0918904309709F4B8CFA0915D046A
:102FF000B0915E044C9150E011966C9180917004F8
:1030000090917104CFCFE0918A04F0918B043097B6
:1030100009F4A4CFA0915D04B0915E044C9150E0FE
:1030200011966C918091720490917304BBCFE091E2
:103030008404F0918504309709F490CFA0915D0449
:10304000B0915E044C9150E06091620480916C04F8
:1030500090916D04A7CFE0918604F091870430979A
:1030600009F47CCFA0915D04B0915E044C9150E0D6
:103070006091620480916E0490916F0493CF903FB1
:1030800030F4822F8F7080936204922F907F903F54
:10309000F1F190F4903CB1F150F4903909F081CE07
:1030A0001093640400936304909361047ACE903D7E
:1030B00049F1903EA9F375CE993F09F442C028F436
:1030C0008CE0890F823060F36CCE9F3F09F069CEAF
:1030D00010926404109263041092610410926204CE
:1030E00090E080E020915F043091600482179307A4
:1030F000A8F4E0915D04F0915E04E80FF91F1082DE
:103100000196F0CFF0926404E0926304CDCFC092B8
:103110006504109267041092660443CE1092650411
:103120001092670410926604E0919604F09197045F
:1031300080917E0490917F04309709F432CE0995F6
:1031400030CEE0919404F0919504309709F429CEA3
:103150008091760490917704F2CF8FB7F8948090A5
:10316000FB029090FC02A090FD02B090FE028FBF87
:103170008091290390912A03A0912B03B0912C03F5
:10318000409101015091020170E060E0881A990AB3
:10319000AA0ABB0A481559056A057B0508F054C000
:1031A000840F951FA61FB71F8093290390932A03AE
:1031B000A0932B03B0932C038AE1882E84E0982EF1
:1031C00092EFB92E85E08B15C8F0F401ED57FF4F53
:1031D0008081823099F480912703909128030B2CF1
:1031E00002C0959587950A94E2F780FF07C08B2D62
:1031F0000E940103BC018B2D0E940E04B394AFEF1B
:103200008A1A9A0AB6E0BB12DDCF8091000187FDD1
:103210001BC0B12C2B2D30E080910001082E000C3A
:10322000990B8217930784F0D29EF001D39EF00D84
:103230001124E150FD4F618172812481438180819D
:103240000E94B60DB394E6CF209709F47BCD0E947F
:10325000D601882309F476CD0E94000073CD052E97
:1032600097FB1EF400940E94461957FD07D00E9458
:10327000611907FC03D04EF40C9446195095409503
:10328000309521953F4F4F4F5F4F08959095809512
:10329000709561957F4F8F4F9F4F08950E948319BE
:1032A000A59F900DB49F900DA49F800D911D11249A
:1032B0000895B7FF0C944E190E944E19821B930B70
:1032C0000895A1E21A2EAA1BBB1BFD010DC0AA1F67
:1032D000BB1FEE1FFF1FA217B307E407F50720F07F
:1032E000A21BB30BE40BF50B661F771F881F991FFA
:1032F0001A9469F760957095809590959B01AC0143
:10330000BD01CF010895A29FB001B39FC001A39F4B
:10331000700D811D1124911DB29F700D811D11240E
:10332000911D0895991B79E004C0991F961708F024
:10333000961B881F7A95C9F780950895EE0FFF1F99
:103340000590F491E02D09940F931F93CF93DF9391
:103350008230910510F482E090E0E0914905F0910F
:103360004A0530E020E0B0E0A0E0309799F4211564
:10337000310509F44AC0281B390B24303105D8F532
:103380008A819B816115710589F1FB019383828399
:10339000FE0111C0408151810281138148175907F4
:1033A000E0F04817590799F4109761F012960C93C2
:1033B000129713961C933296CF01DF91CF911F91F4
:1033C0000F9108950093490510934A05F4CF2115F4
:1033D000310551F04217530738F0A901DB019A017A
:1033E000BD01DF01F801C1CFEF01F9CF90934A058C
:1033F00080934905CDCFFE01E20FF31F8193919396
:103400002250310939832883D7CF20914705309145
:103410004805232B41F4209105013091060130939A
:10342000480520934705209103013091040121159F
:10343000310541F42DB73EB7409107015091080185
:10344000241B350BE0914705F0914805E217F3077F
:10345000A0F42E1B3F0B2817390778F0AC014E5F04
:103460005F4F2417350748F04E0F5F1F50934805F4
:1034700040934705819391939FCFF0E0E0E09CCF8C
:10348000CF93DF930097E9F0FC0132971382128209
:10349000A0914905B0914A05ED0130E020E0109778
:1034A000A1F420813181820F931F20914705309133
:1034B00048052817390709F061C0F0934805E093E3
:1034C0004705DF91CF910895EA01CE17DF07E8F5B0
:1034D0004A815B819E0141155105B1F7E901FB83EA
:1034E000EA8349915991C40FD51FEC17FD0761F488
:1034F000808191810296840F951FE90199838883C9
:10350000828193819B838A83F0E0E0E012968D9123
:103510009C9113970097B9F52D913C911197CD018E
:103520000296820F931F2091470530914805281776
:10353000390739F6309751F510924A05109249052E
:10354000B0934805A0934705BCCFD383C283408185
:103550005181840F951FC817D90761F44E5F5F4FE3
:1035600088819981480F591F518340838A819B81AB
:10357000938382832115310509F0B0CFF0934A057A
:10358000E09349059ECFFD01DC01C0CF138212827A
:10359000D7CFFB01DC014150504048F001900D9223
:1035A0000020C9F701C01D9241505040E0F7089536
:1035B000F894FFCFFF130000004B058000000000CF
:1035C000000C026C0199015902CA01A801BC01005A
:1035D000000000E306B60612078C06AF069C068DB7
:1035E0000600000000070C6C0112076E034D6178A5
:1035F00020736572766F73206174746163686564AB
:1036000000556E6B6E6F776E2070696E206D6F6403
:1036100065004932433A20546F6F206D616E792006
:1036200062797465732072656365697665640049C3
:1036300032433A20546F6F20666577206279746553
:10364000732072656365697665640031302D626947
:10365000742061646472657373696E67206E6F7441
:1036600020737570706F7274656400746F6F206D75
:10367000616E79207175657269657300433A5C55B6
:10368000736572735C416E69727564685C446F63E4
:10369000756D656E74735C41726475696E6F5C669E
:1036A00069726D6174614172645C6669726D6174A6
:0A36B000614172642E696E6F000024
:107E0000112484B714BE81FFF0D085E080938100F7
:107E100082E08093C00088E18093C10086E0809377
:107E2000C20080E18093C4008EE0C9D0259A86E02C
:107E300020E33CEF91E0309385002093840096BBD3
:107E4000B09BFECF1D9AA8958150A9F7CC24DD24C4
:107E500088248394B5E0AB2EA1E19A2EF3E0BF2EE7
:107E6000A2D0813461F49FD0082FAFD0023811F036
:107E7000013811F484E001C083E08DD089C08234E0
:107E800011F484E103C0853419F485E0A6D080C0E4
:107E9000853579F488D0E82EFF2485D0082F10E0AE
:107EA000102F00270E291F29000F111F8ED06801E7
:107EB0006FC0863521F484E090D080E0DECF843638
:107EC00009F040C070D06FD0082F6DD080E0C81688
:107ED00080E7D80618F4F601B7BEE895C0E0D1E017
:107EE00062D089930C17E1F7F0E0CF16F0E7DF06D8
:107EF00018F0F601B7BEE89568D007B600FCFDCFD4
:107F0000A601A0E0B1E02C9130E011968C91119780
:107F100090E0982F8827822B932B1296FA010C0160
:107F200087BEE89511244E5F5F4FF1E0A038BF0790
:107F300051F7F601A7BEE89507B600FCFDCF97BE46
:107F4000E89526C08437B1F42ED02DD0F82E2BD052
:107F50003CD0F601EF2C8F010F5F1F4F84911BD097
:107F6000EA94F801C1F70894C11CD11CFA94CF0C13
:107F7000D11C0EC0853739F428D08EE10CD085E9AC
:107F80000AD08FE07ACF813511F488E018D01DD067
:107F900080E101D065CF982F8091C00085FFFCCF94
:107FA0009093C60008958091C00087FFFCCF809118
:107FB000C00084FD01C0A8958091C6000895E0E648
:107FC000F0E098E1908380830895EDDF803219F02E
:107FD00088E0F5DFFFCF84E1DECF1F93182FE3DFCA
:107FE0001150E9F7F2DF1F91089580E0E8DFEE27F6
:047FF000FF270994CA
:027FFE00040479
:00000001FF
