:020000040000FA
:100000000C947B010C94A3010C94A3010C941F0D80
:100010000C941F0D0C941F0D0C94A3010C94A301C0
:100020000C94A3010C94A3010C94A3010C94970DC0
:100030000C94A3010C94A3010C94A3010C94A301B0
:100040000C94D50C0C94A3010C94A30C0C947D0C73
:100050000C94A3010C94A3010C94A3010C94A30190
:100060000C94A3010C94A3015D2000626C6E6B697B
:100070006E660076657200312E302E3100682D627A
:1000800065617400343500627566662D696E0032F4
:100090003536006465760041726475696E6F20556F
:1000A0006E6F006370750041546D6567613332385F
:1000B0005000636F6E0053747265616D0062756904
:1000C0006C64004A616E203132203230323220318D
:1000D000363A32393A333000000000000000240084
:1000E00027002A000D0A202020205F5F5F20205F6C
:1000F0005F202020202020202020205F5F0D0A206C
:1001000020202F205F20292F202F5F205F5F5F5F3F
:100110005F20202F202F5F5F0D0A20202F205F20DF
:10012000202F202F202F2F202F205F205C2F2020FA
:10013000275F2F0D0A202F5F5F5F5F2F5F2F5C5FB0
:100140002C202F5F2F2F5F2F5F2F5C5F5C0D0A200D
:10015000202020202020202F5F5F5F2F2076312E4F
:10016000302E31206F6E2041726475696E6F20559C
:100170006E6F0D0A00436F6E6E656374696E672E55
:100180002E2E006D73292E0052656164792028702F
:10019000696E673A200000000008000201000003B9
:1001A000040700000000000000000B020B020B021D
:1001B0000B020B020B020B020B020B020B020B02D7
:1001C0000B020B020B020B020B020B020B020B02C7
:1001D0000B020B020B020B020B020B020B020B02B7
:1001E0000B020B020B020B020B020A029A058C0592
:1001F0000A020A020A020A020A020A020A020A029F
:100200000A020A020A020A020A020A020A020A028E
:100210000A020A020A020A020A020A020A020A027E
:100220000A020A020A020A020A02496E76616C692F
:100230006420485720636D643A20005365727665E8
:10024000723A20005265646972656374696E672052
:10025000746F20005265616479005061636B65744E
:1002600020746F6F206269673A2000436F6E6E657D
:100270006374206661696C65642E20636F64653AFF
:100280002000496E76616C69642061757468207421
:100290006F6B656E004C6F67696E2074696D656F7A
:1002A0007574004865617274626561742074696D6B
:1002B000656F75740000000000230026002900000F
:1002C000000000250028002B00040404040404049A
:1002D00004020202020202030303030303010204F5
:1002E00008102040800102040810200102040810B8
:1002F0002000530EA21011241FBECFEFD8E0DEBFA6
:10030000CDBF11E0A0E0B1E0ECE9F6E202C005905B
:100310000D92A236B107D9F722E0A2E6B1E001C002
:100320001D92A43BB207E1F711E0CAE7D1E004C097
:100330002197FE010E941A13C937D107C9F70E94FD
:100340005C0F0C9441130C9400008F929F92AF921B
:10035000BF92FF920F931F93CF93DF93F09072029F
:100360002BE02F1508F44CC02091740208E512E030
:10037000021B110927FD1395000F111F000F111FFC
:1003800020917302C8E8D0E0C21BD10927FDD395A4
:10039000CC0FDD1FCC0FDD1F4E010D2E000CAA0867
:1003A000BB089801012E000C440B550B2819390984
:1003B0004A095B09DC010E94AD1224EB30E040E009
:1003C00050E00E948312820E931EA41EB51E8C164E
:1003D0009D062CF0E801801691060CF4E4012297AA
:1003E000CC0FDD1F2FB7F8948F2D90E0FC01EE0F9E
:1003F000FF1FE80FF91FE35BFD4FD283C1832FBFBF
:10040000DF91CF911F910F91FF90BF90AF909F9080
:100410008F90089508950895AF92BF92CF92DF9282
:10042000EF92FF920F931F93CF93DF936C017B01A9
:100430008B01040F151FEB015E01AE18BF08C0173A
:10044000D10759F06991D601ED91FC910190F081AD
:10045000E02DC6010995892B79F7C501DF91CF9170
:100460001F910F91FF90EF90DF90CF90BF90AF90D2
:100470000895FC01538D448D252F30E0842F90E0AA
:10048000821B930B541710F0CF960895019708958F
:10049000FC01918D828D981761F0A28DAE0FBF2F58
:1004A000B11D5D968C91928D9F5F9F73928F90E0AE
:1004B00008958FEF9FEF0895FC01918D828D98171D
:1004C00031F0828DE80FF11D858D90E008958FEF5A
:1004D0009FEF0895FC01918D228D892F90E0805C23
:1004E0009F4F821B91098F739927089580EB91E0AC
:1004F0000E946A0221E0892B09F420E0822F0895EE
:1005000080E090E0892B29F00E94760281110C9402
:1005100000000895FC01A48DA80FB92FB11DA35AA6
:10052000BF4F2C91848D90E001968F739927848F13
:10053000A689B7892C93A089B1898C918370806436
:100540008C93938D848D981306C00288F389E02DD7
:1005500080818F7D80830895EF92FF920F931F9388
:10056000CF93DF93EC0181E0888F9B8D8C8D981366
:100570001AC0E889F989808185FF15C09FB7F89472
:10058000EE89FF896083E889F989808183708064BE
:1005900080839FBF81E090E0DF91CF911F910F9109
:1005A000FF90EF900895F62E0B8D10E00F5F1F4F18
:1005B0000F731127E02E8C8D8E110CC00FB607FC27
:1005C000FACFE889F989808185FFF5CFCE010E94B5
:1005D0008A02F1CFEB8DEC0FFD2FF11DE35AFF4F97
:1005E000F0829FB7F8940B8FEA89FB898081806243
:1005F000CFCFCF93DF93EC01888D8823B9F0AA8900
:10060000BB89E889F9898C9185FD03C0808186FDCD
:100610000DC00FB607FCF7CF8C9185FFF2CF80811C
:1006200085FFEDCFCE010E948A02E9CFDF91CF9105
:100630000895833081F028F4813099F08230A9F058
:1006400008958730A9F08830C9F08430B1F48091E2
:1006500080008F7D03C0809180008F778093800021
:10066000089584B58F7784BD089584B58F7DFBCFC1
:100670008091B0008F778093B00008958091B00092
:100680008F7DF9CF1F93CF93DF93282F30E0F901AF
:10069000EA56FE4F8491F901E352FD4FD491F901DE
:1006A000E753FD4FC491CC23A9F0162F81110E946E
:1006B0001903EC2FF0E0EE0FFF1FE154FD4FA59161
:1006C000B4918FB7F894EC91111108C0D095DE2346
:1006D000DC938FBFDF91CF911F910895DE2BF8CF70
:1006E000CF93DF9390E0FC01E352FD4F24918753B9
:1006F0009D4FFC0184918823C9F090E0880F991FD9
:10070000FC01E652FF4FA591B491FC01E154FD4F6D
:10071000C591D49161110DC09FB7F8948C9120952B
:1007200082238C938881282328839FBFDF91CF91D8
:100730000895623051F49FB7F8943C91822F8095D0
:1007400083238C93E8812E2BEFCF8FB7F894EC9115
:100750002E2B2C938FBFEACF3FB7F8948091AC013A
:100760009091AD01A091AE01B091AF0126B5A89BCB
:1007700005C02F3F19F00196A11DB11D3FBFBA2F33
:10078000A92F982F8827BC01CD01620F711D811DF3
:10079000911D42E0660F771F881F991F4A95D1F778
:1007A00008950C94AC032FB7F8946091A801709150
:1007B000A9018091AA019091AB012FBF08952091CA
:1007C000A5013091A6012817390771F49091A40171
:1007D0008091A301981741F0E091A401F0E0ED5958
:1007E000FE4F808190E008958FEF9FEF0895EF9284
:1007F000FF920F931F93CF93DF93DC015C96ED90F4
:10080000FC905D97E114F10479F481E090E0139697
:100810009C938E93129790E080E0DF91CF911F918F
:100820000F91FF90EF9008955196ED91FC915297A2
:1008300050968C915097982F90950FB75E962C916B
:100840005E97122F127021FD6095F894208111237C
:1008500019F1282B2083E7012197F1F728E0462F93
:1008600050E0308160FF1AC0382B3083E7012197B8
:10087000F1F7BA0175956795215089F7112381F039
:100880008081892380830FBF5C968D919C91019715
:10089000F1F781E090E0C1CF2923DCCF3923E5CF08
:1008A0009081892BEFCF0F931F93CF93DF938C0110
:1008B000D0E0C0E0F801EC0FFD1F6491662341F029
:1008C00081E992E00E94F703892B11F02196F2CF83
:1008D000CE01DF91CF911F910F9108952091A50135
:1008E0003091A6012817390771F48091A301209156
:1008F000A40190E0805C9F4F821B910960E470E04E
:100900000E94F212089590E080E008952091A501E0
:100910003091A60128173907B9F49091A40180916C
:10092000A301981789F0E091A401F0E0ED59FE4F82
:1009300080812091A40130E02F5F3F4F2F73332738
:100940002093A40190E008958FEF9FEF089590E029
:1009500080E008958F929F92AF92BF92CF92DF92E4
:10096000EF92FF920F931F93CF93DF936C017B0164
:100970008B01040F151F0E94D3034B015C01E7019B
:10098000C017D107C8F40E94D303681979098A09EE
:100990009B09603777418105910570F4D6018D91EF
:1009A0009C91DC01ED91FC910284F385E02D099589
:1009B00097FDE6CF8993E4CFCE018E199F09DF9191
:1009C000CF911F910F91FF90EF90DF90CF90BF904C
:1009D000AF909F908F900895FC0101900020E9F75F
:1009E0003197AF01481B590BBC0181E992E00C948F
:1009F0000C028F929F92AF92BF920F931F93CF934F
:100A0000DF93CDB7DEB7A1970FB6F894DEBF0FBE68
:100A1000CDBF19A2423008F44AE08E010F5D1F4F8E
:100A2000842E912CB12CA12CA50194010E94B51209
:100A3000E62FB901CA01EA30F4F4E05DD801EE9383
:100A40008D01232B242B252B79F790E080E0109744
:100A500019F0CD010E94EC04A1960FB6F894DEBF08
:100A60000FBECDBFDF91CF911F910F91BF90AF907F
:100A70009F908F900895E95CE1CF6BE581E992E06A
:100A80000E94F7030E94D3034AE00E94F90488E61B
:100A900090E00C945304CF93DF93BC0190E080E08E
:100AA0004AE00E94F904EC018BE491E00E94EC041E
:100AB0008C0F9D1FDF91CF910895CF93DF930E94FC
:100AC0005304EC018BE491E00E94EC048C0F9D1F19
:100AD000DF91CF910895CF93DF930E94EC04EC0156
:100AE0008BE491E00E94EC048C0F9D1FDF91CF916D
:100AF0000895DC01ED91FC911197309761F0129609
:100B00002D913C911397E217F30728F401900020F0
:100B1000E9F7ED93FC930895FB01808191810E9498
:100B2000E311019721F484EB90E00C94A50190E08F
:100B300080E0FBCFFB01808191810E94E31161E0A5
:100B4000019709F060E08BE00C944203FC01808186
:100B50009181009739F0228133818217930710F435
:100B60000C94E31190E080E008950F931F93CF93CE
:100B7000DF93EC01FB0101900020E9F78F01061BD8
:100B8000170B8A819B81A801480F591F2C813D8139
:100B90002417350768F028813981A801820F931F37
:100BA0000E9420134A815B81400F511F5B834A835F
:100BB000DF91CF911F910F9108950F931F93CF93C2
:100BC000DF93CDB7DEB762970FB6F894DEBF0FBEE6
:100BD000CDBF8C01CB014AE0BE016F5F7F4F0E9409
:100BE0003112BE016F5F7F4FC8010E94B50562964A
:100BF0000FB6F894DEBF0FBECDBFDF91CF911F912E
:100C00000F9108953F924F925F926F927F928F92D1
:100C10009F92AF92BF92CF92DF92EF92FF920F938B
:100C20001F93CF93DF93CDB7DEB7A3970FB6F8949A
:100C3000DEBF0FBECDBF6C012DB73EB73BA32AA3CD
:100C40000E94D103D60157968D919C915897B12C53
:100C5000029709F411C456968C9156978F5F569659
:100C60008C93569754962D913C915597232B19F0C0
:100C7000BB24B394FAC38330D8F7ED91FC91828101
:100C8000882309F4D7C3FE0131964F0150E1452E68
:100C9000512CD601ED91FC9180819181DC01ED9187
:100CA000FC910084F185E02D0995181619060CF0C9
:100CB000C1C345E050E0BE01695E7F4FF60180810F
:100CC00091810E94AA04009721F3059709F06EC054
:100CD000888D998D982789279827998F888F0A8DD5
:100CE0001B8D1027012710271B8F0A8F892B09F4D2
:100CF0005DC08F8981116FC00E94D303D601169603
:100D00006D937D938D939C93199757962D913C915C
:100D10008A8D9B8D232B09F05AC0288D398D213067
:100D2000310509F054C08930910599F1883C91054D
:100D300019F0049709F040C00E943D0588E891E051
:100D40000E945304F601668177818085918506852E
:100D5000178520893189601B710B820B930B4AE048
:100D60000E94F90483E891E00E945D05F601868106
:100D70009781A085B18586879787A08BB18B21E06D
:100D800030E0308F278BC6010E94440C0E94D103B3
:100D900080CF0E943D0582E892E00E945D0583E0DD
:100DA00090E0D60158969C938E935797D601ED917B
:100DB000FC911282B12C59C30E943D058BE692E052
:100DC0000E9453048A8D9B8D0E944B05EFCF05979F
:100DD00009F05FCFEBCF0130B1E01B0790F00E942C
:100DE0003D058AE592E00E9453048A8D9B8D0E9406
:100DF0004B05F601108E178A0190F081E02D1282CA
:100E000048CFADB6BEB6C80101962DB73EB7281B78
:100E1000390B0FB6F8943EBF0FBE2DBF4DB75EB76E
:100E20004F5F5F4F7A01A801B701D6018D919C9168
:100E30000E94AA048017910709F076C0EA8DFB8D05
:100E4000EE0DFF1D10820E94D303F60166837783A7
:100E5000808791878F89813109F4D7C278F58630F0
:100E6000D9F08F3009F4C6C0823071F5D60157969B
:100E70008D919C91892B81F40E943D0584E592E03F
:100E80000E945D0521E030E0F601308F278BC6011E
:100E90000E94440C0E94D103488D598DF12CE12C05
:100EA00008EC10E030E020E060E0C6010E94430B57
:100EB0000FB6F894BEBE0FBEADBEEBCE8D31B1F213
:100EC00058F4843109F496C0F601108E178A019007
:100ED000F081E02D1282ECCF893281F08733A1F7C7
:100EE0008A8D9B8D892B21F30E943D058BE392E037
:100EF0000E945304C7010E946B05DACF848195815B
:100F0000892B39F480E490E00E94BE10F6019583AD
:100F100084830A8D1B8D0E0D1F1DFA82E9821C83AE
:100F20000B83E016F10630F00FB6F894BEBE0FBE8C
:100F3000ADBE3CCF40E450E0B701D60114968D9190
:100F40009C910E943213D6011496ED91FC9117AE3C
:100F5000C4010E947905FC0180819181801791076D
:100F600008F045C089819A810097E9F12B813C8185
:100F700082179307C0F50E9401128B010E943D0564
:100F800084E492E00E945304D60114968D919C91C2
:100F9000009711F00E94EC046AE381E992E00E945C
:100FA000F703C8010E944B05D601ED91FC91119702
:100FB000128258961C921E9257970E94D303DC010E
:100FC000CB0188589341A109B109F6018287938723
:100FD000A487B58786839783A087B18786879787FD
:100FE000A08BB18B65CF60E070E0CB01C6CF00E590
:100FF00010E0C4CF888D998DD60155969C938E9321
:101000005497EA8DFB8DF9A3E8A33F016E0C7F1C7A
:10101000FD8EEC8E7F8E6E8EE614F70408F08AC18A
:10102000D7010D911C91CE014C960E947905FC01CF
:10103000808191818615970508F07CC18C8D9D8DEE
:10104000DC012C91213409F063C001960E94E31168
:101050004EE0342E380E06970CF45FC00637B2E728
:101060001B0709F467C108F0FDC20136F2E71F074C
:1010700009F4E3C2043622E7120709F05EC0332404
:101080003A949A8A898A1C8A1B8A5E8A4D8A6CE500
:1010900071E0CE0141960E94B505032D10E0B80124
:1010A000CE0141960E94DD05F801EA56FE4F84917B
:1010B000F801E352FD4FF49007531D4FF8010491DE
:1010C00060E070E0002389F081110E941903E02F95
:1010D000F0E0EE0FFF1FEB54FD4FA591B491EC91A2
:1010E000FE2261E070E009F460E0CE0141960E94CA
:1010F000DD050B891C890150110929893A89F12CD8
:10110000E12C50E040E064E1C6010E94430B12C1B3
:10111000CE014C960E94A605382E0637B2E71B0773
:1011200009F42BC118F50136F2E71F0709F4B1C025
:10113000043622E7120709F4A4CF00371D4609F44C
:101140006DC00E943D058AE292E00E945304C701EF
:101150000E946B05D60154964D915C91F12CE12CC7
:1011600002E010E030E020E060E0CECF043647E758
:10117000140709F473C0063757E7150709F416C1B9
:1011800001361747F1F6CE014C960E947905DC0135
:101190008D919C918615970508F0CCC061E0832D58
:1011A0000E947003CE014C960E94A6058C0161E05E
:1011B000832D0E9470030115110509F465C00F3FCE
:1011C000110509F092C061E060C0CE014C960E940A
:1011D000A605F82ECE014C960E9479050C8D1D8D2A
:1011E0006EE471E0C8010E94291360E0892B79F058
:1011F00061E571E0C8010E942913892B39F065E58A
:1012000071E0C8010E942913892BE9F461E08F2D58
:101210000E947003CE014C960E9479058C8D9D8DA5
:101220008615970508F086C0DC012C91213469F6FB
:1012300001960E94E3113EE0F32EF80E069754F259
:10124000FF24FA94C7CF69E571E0C8010E94291311
:10125000892B01F762E0DBCF33243A94CE014C9620
:101260000E947905DC018D919C918615970508F007
:1012700061C061E0832D0E947003CE014C960E94F4
:10128000A60561E0892B09F460E0832D0E944203EA
:1012900051C09A8A898A1C8A1B8A5E8A4D8A6FE5A8
:1012A00071E0CE0141960E94B505632D70E0CE013C
:1012B00041960E94DD05BDE0B31510F4E2EF3E0E4D
:1012C000832D8770806480937C0080917A00806495
:1012D00080937A0080917A0086FDFCCF809178001F
:1012E00060917900762F682F00CFE32DF0E0EA5669
:1012F000FE4FE491E33039F148F4E130B9F0E230E7
:10130000E9F0003811050CF05ECFBECFE73029F1CF
:10131000E83059F1E430A9F7809180008062809331
:10132000800010938B0000938A0004C084B580680D
:1013300084BD07BDF601158A148ABACD84B58062D2
:1013400084BD08BDF7CF80918000806880938000C5
:101350001093890000938800EDCF8091B0008068E1
:101360008093B0000093B300E5CF8091B00080621D
:101370008093B0000093B400DDCF3982BFE1B31594
:10138000C8F2E32DF0E0EE0FFF1FE655FE4F25916A
:1013900034912115310571F2E2E02B303E0751F214
:1013A000C401F9010995C6CF33243A94CE014C9675
:1013B0000E9479052C8D3D8DC9018E199F0948A188
:1013C00059A1481B590B3A8329835C834B835E8365
:1013D0004D83398A5FE1531508F4ACCFE32DF0E07B
:1013E000EE0FFF1FE651FE4F259134912115310577
:1013F00009F4A0CF82E02A30380709F49BCFB4016A
:10140000CE014196F901099595CF8A8D9B8D8E0D60
:101410009F1DFA82E9829C838B83E816F90608F007
:1014200047CDC4010E947905D60155961C921E92A3
:1014300054973ECD0E94D3032B013C01F60100815D
:101440001181D8011296BC9012978789908D8130B6
:10145000910509F08EC0B1102FC046865786608A6C
:10146000718A108E178A12961C92D60156968C910C
:101470005697815056968C938B2DAAA1BBA10FB67F
:10148000F894BEBF0FBEADBFA3960FB6F894DEBFF3
:101490000FBECDBFDF91CF911F910F91FF90EF90C5
:1014A000DF90CF90BF90AF909F908F907F906F9084
:1014B0005F904F903F90089586819781A085B18578
:1014C000A3019201281B390B4A0B5B0BDA01C901FE
:1014D000893136EF9307A105B10560F00E943D0503
:1014E00083EA92E00E945D05D60158961C921E92F6
:1014F00057975DCC893C9F4AA105B10598F4F60148
:1015000082859385A485B585A3019201281B390B9B
:101510004A0B5B0BDA01C901893C9F4AA105B10561
:1015200008F4A6CBF60186859785A089B189A30129
:101530009201281B390B4A0B5B0BDA01C901813779
:101540009741A105B10508F493CBF12CE12C10E0F3
:1015500000E030E020E050E040E066E0C6010E949C
:10156000430BD6011E964D925D926D927C925197DF
:101570007CCF892B09F07CCB86859785A089B189A2
:10158000481A590A6A0A7B0ABB20C1F0F1E74F16D4
:10159000F7E15F066104710408F46ACB0E943D051F
:1015A00085E992E00E945D05D601ED91FC911197CD
:1015B000128258961C921E925797FCCBB9E84B1694
:1015C000B3E15B066104710408F452CB0E943D054F
:1015D00085E791E00E945D05F80180819181DC0141
:1015E000ED91FC910680F781E02D099581E0F801ED
:1015F000828381E090E0D60153969C938E9352971C
:1016000012962D913C91F90101900020E9F7319754
:101610008F01021B130BF12CE12C41E050E06DE136
:10162000C6010E94430BF60182859385A485B5858A
:1016300086879787A08BB18B1BCB9A8A898A1C8A55
:101640001B8A5E8A4D8A6FE571E0CE0141960E9449
:10165000B5056FEF70E0CE0141960E94DD053324A1
:101660003A942CCE043647E7140709F4F5CD063733
:1016700057E7150709F498CE0136174709F061CDF1
:1016800033243A9480CD2F923F924F925F927F9273
:101690008F929F92AF92BF92CF92DF92EF92FF9282
:1016A0000F931F93CF93DF9300D000D01F92CDB73D
:1016B000DEB77C01762E6A015901DC01ED91FC91C7
:1016C0008281882309F4A9C0862F8D7F09F4D7C0B1
:1016D000B6E06B1709F4D3C0EDE16E1709F4CFC083
:1016E000D70157968D919C91019709F096C0452B93
:1016F00081F4F701C488D588C114D10451F48289DA
:101700009389019609F4A0C0938B828BF701C2885C
:10171000D38884EF870D8930B0F5D7011A964D91A3
:101720005D916D917C911D9716968D919D910D9077
:10173000BC91A02D84179507A607B70710F4DB010D
:10174000CA011C012D01E2E42E0E311C411C511C6A
:101750000E94D303A2019101261B370B480B590BA2
:10176000DA01C901B7FD75C0C7010E9402060E94D7
:10177000D303A2019101261B370B480B590BDA0149
:10178000C901B7FFF1CF4801B5E08B0E911CA11440
:10179000B10419F485E0882E912C7982DC24CD24C3
:1017A000DC24DB82CA82902F812F9D838C83D7011A
:1017B000ED91FC9180819181DC01ED91FC910280A1
:1017C000F381E02D45E050E0BE016F5F7F4F09954A
:1017D0000E94D103772009F445C00115110509F4D1
:1017E00041C0D701ED91FC9180819181DC01ED91A7
:1017F000FC910280F381E02DA801B50109950B5FF2
:101800001F4F0E94D1038016910679F1F701108EC7
:10181000178A0190F081E02D12820F900F900F90A7
:101820000F900F90DF91CF911F910F91FF90EF904C
:10183000DF90CF90BF90AF909F908F907F905F9000
:101840004F903F902F90089581E090E0938B828B92
:101850005DCFD70156968C91811195CFC7010E941B
:10186000020691CF05E010E0CECF0E94D303D7014E
:101870001A966D937D938D939C931D97CECFC11433
:10188000D10409F080CF35CFCF92DF92EF92FF9253
:101890000F931F93CF93DF93CDB7DEB7C55AD1090E
:1018A0000FB6F894DEBF0FBECDBF6C0145E650E029
:1018B00063E770E0CE0101960E942812CE018A599A
:1018C0009F4F7C0105E610E09E012F5F3F4F50E0E7
:1018D00040E061E1C6010E94430BCB55DF4F0FB6DC
:1018E000F894DEBF0FBECDBFDF91CF911F910F9156
:1018F000FF90EF90DF90CF9008951F920F920FB658
:101900000F9211242F933F934F935F936F937F9385
:101910008F939F93AF93BF93EF93FF9380EB91E0EF
:101920000E948A02FF91EF91BF91AF919F918F9199
:101930007F916F915F914F913F912F910F900FBECB
:101940000F901F9018951F920F920FB60F921124AF
:101950002F938F939F93EF93FF93E091C001F091AA
:10196000C1018081E091C601F091C70182FD1BC0D9
:1019700090818091C9018F5F8F732091CA01821776
:1019800041F0E091C901F0E0E055FE4F958F809362
:10199000C901FF91EF919F918F912F910F900FBEF1
:1019A0000F901F9018958081F4CF1F920F920FB661
:1019B0000F9211242F933F938F939F93AF93BF93D5
:1019C0008091A8019091A901A091AA01B091AB01C9
:1019D0003091A70123E0230F2D3758F50196A11D63
:1019E000B11D2093A7018093A8019093A901A09312
:1019F000AA01B093AB018091AC019091AD01A0918F
:101A0000AE01B091AF010196A11DB11D8093AC0153
:101A10009093AD01A093AE01B093AF01BF91AF9190
:101A20009F918F913F912F910F900FBE0F901F901C
:101A3000189526E8230F0296A11DB11DD2CF1F9243
:101A40000F920FB60F9211242F933F934F935F93F2
:101A50006F937F938F939F93AF93BF93EF93FF9376
:101A6000E091A501F091A601309749F0A685B785D0
:101A70008585968D91FF14C09C918923A1F4FF91D7
:101A8000EF91BF91AF919F918F917F916F915F91F6
:101A90004F913F912F910F900FBE0F901F9018956F
:101AA0009C91892361F7A389B4899C91858980954C
:101AB00089238C93868997890197F1F7608D718DC1
:101AC000A685B785558538E020E0CB010197F1F771
:101AD000822F90E095958795282F4C91452309F00A
:101AE0002068315091F7868D81FD20958091A3016A
:101AF00090E001968F7399273091A401381799F0DF
:101B0000A091A301B0E0AD59BE4F2C938093A301E7
:101B1000828D938D0197F1F7A389B4898C91958972
:101B2000892B8C93ACCF868D8160868FF1CF1F92ED
:101B30000F920FB60F9211242F933F934F935F9301
:101B40006F937F938F939F93AF93BF93CF93DF93C5
:101B5000EF93FF9380916201C0917102D0E087FF03
:101B600024C01092850010928400809162018F5FE2
:101B70008093620180916201082E000C990B8C17F2
:101B80009D0724F4809162018C30C4F1809184001F
:101B900090918500049680349C4908F47AC0809125
:101BA000840090918500049676C080916201082E91
:101BB000000C990B8C179D07C4F6E09162018E2FE3
:101BC000EE0F990BFC01EE0FFF1FE80FF91FE35B0F
:101BD000FD4F808186FFC9CFE09162018E2FEE0F0D
:101BE000990BFC01EE0FFF1FE80FF91FE35BFD4FA0
:101BF000808160E08F730E944203B7CF2091840000
:101C000030918500E09162018E2FEE0F990BFC015F
:101C1000EE0FFF1FE80FF91FE35BFD4F81819281FB
:101C2000820F931F9093890080938800E091620156
:101C30008E2FEE0F990BFC01EE0FFF1FE80FF91F1F
:101C4000E35BFD4F808186FF11C0E09162018E2F22
:101C5000EE0F990BFC01EE0FFF1FE80FF91FE35B7E
:101C6000FD4F808161E08F730E944203FF91EF91ED
:101C7000DF91CF91BF91AF919F918F917F916F91A4
:101C80005F914F913F912F910F900FBE0F901F903A
:101C9000189580E49CE990938900809388008FEFE9
:101CA00080936201E3CF0F931F93CF93DF93109242
:101CB000B3011092B20188EE93E0A0E0B0E080930F
:101CC000B4019093B501A093B601B093B7012BE294
:101CD00031E03093B1012093B00125EC30E0309336
:101CE000BD012093BC0124EC30E03093BF01209370
:101CF000BE0120EC30E03093C1012093C00121EC03
:101D000030E03093C3012093C20122EC30E03093E5
:101D1000C5012093C40126EC30E03093C701209325
:101D2000C6011092C9011092CA011092CB01109203
:101D3000CC0110929402109293028093950290939A
:101D40009602A0939702B09398028DE391E090934E
:101D50009202809391021092A8021092A702109210
:101D6000AA021092A9021092AC021092AB02109239
:101D7000AE021092AD026091AF026E7F6D7F6093F4
:101D8000AF026695617081E068278AE00E94420395
:101D900061E08AE00E94700307EE12E0F80184918E
:101DA0008093A102C3EDD2E0FE018491E82FF0E020
:101DB000EE0FFF1FE154FD4F859194919093A30284
:101DC0008093A20260E08AE00E9470038091AF02DB
:101DD00081FD04C061E08AE00E9442038AE08093B2
:101DE0009D02F801049100939E02FE01C491EC2F24
:101DF000F0E0EE0FFF1FEB54FD4F8591949190930F
:101E0000A00280939F0210928F0210928E02109275
:101E100090028EE892E09093760280937502109281
:101E200078021092770210927A0210927902109240
:101E30007B0210927C0210927D0210927E02109220
:101E40007F02109280021092810210928202109200
:101E500083021092840210928502109286021092E0
:101E600088021092870210928A02109289021092C0
:101E70008B0210928D0210928C02809171028C3034
:101E8000B8F491E0980F909371028093720290E001
:101E9000FC01EE0FFF1FE80FF91FE35BFD4F88EB1E
:101EA0009BE092838183DF91CF911F910F910895E1
:101EB0008FEF80937202F7CF789484B5826084BDEF
:101EC00084B5816084BD85B5826085BD85B581603E
:101ED00085BD80916E00816080936E0010928100BC
:101EE0008091810082608093810080918100816077
:101EF0008093810080918000816080938000809138
:101F0000B10084608093B1008091B00081608093C3
:101F1000B00080917A00846080937A0080917A008A
:101F2000826080937A0080917A00816080937A0049
:101F300080917A00806880937A001092C100E091CD
:101F4000C001F091C10182E08083E091BC01F09179
:101F5000BD011082E091BE01F091BF018FEC808342
:101F60001092C801E091C401F091C50186E0808320
:101F7000E091C201F091C301808180618083E09192
:101F8000C201F091C301808188608083E091C20129
:101F9000F091C301808180688083E091C201F0915B
:101FA000C30180818F7D808380E091E090937802EF
:101FB000809377020E94D303DC01CB0188589341C0
:101FC000A109B10980937F0290938002A0938102BE
:101FD000B093820280937B0290937C02A0937D0257
:101FE000B0937E028093830290938402A093850233
:101FF000B09386020E943D0584EE90E00E945D054C
:10200000E0917502F091760280EB91E091838083FC
:10201000E0917502F0917602128210928D02109278
:102020008C020E94D3036B017C0180918C02909101
:102030008D02019781F00E94D3036C197D098E09EE
:102040009F09603576448105910528F485E792E083
:102050000E940206EACF80918C0290918D02019736
:10206000B9F6809172028C3008F051C061E08AE0CC
:102070000E94700380917202282F30E0F901EE0F68
:10208000FF1FE20FF31FE35BFD4F9081907C9A608E
:10209000908310927302109274022CE0622F0E94BF
:1020A000E612829FB001112430E020E0AB01420F24
:1020B000531FFA01EE0FFF1FE40FF51FE35BFD4F07
:1020C000908196FD16C02F5F3F4F2C30310571F780
:1020D00081110FC01092800082E0809381001092E5
:1020E000850010928400B19A80916F008260809385
:1020F0006F00E09172028E2F90E0FC01EE0FFF1F47
:10210000E80FF91FE35BFD4F80818064808361E00D
:102110008BE00E94700361E08CE00E94700361E03C
:102120008DE00E947003C0E0D0E085E792E00E945D
:1021300002062097D1F30E9476028823B1F30E9411
:102140000000F3CF8DE391E090939202809391028F
:102150008091A5019091A6018159924071F4E0917E
:10216000A402F091A50290818091A6028095892316
:1021700080831092A6011092A50108950F931F93DA
:10218000CF93DF938230910510F482E090E0E091EC
:10219000B202F091B30230E020E0B0E0A0E030976E
:1021A00099F42115310509F44AC0281B390B243054
:1021B0003105D8F58A819B816115710589F1FB0193
:1021C00093838283FE0111C040815181028113817A
:1021D00048175907E0F04817590799F4109761F02C
:1021E00012960C93129713961C933296CF01DF919F
:1021F000CF911F910F9108950093B2021093B302F3
:10220000F4CF2115310551F04217530738F0A901D9
:10221000DB019A01BD01DF01F801C1CFEF01F9CF68
:102220009093B3028093B202CDCFFE01E20FF31F71
:10223000819391932250310939832883D7CF2091FC
:10224000B0023091B102232B41F42091230130914F
:1022500024013093B1022093B002209121013091EA
:1022600022012115310541F42DB73EB740912501DA
:1022700050912601241B350BE091B002F091B10280
:10228000E217F307A0F42E1B3F0B2817390778F04D
:10229000AC014E5F5F4F2417350748F04E0F5F1FAC
:1022A0005093B1024093B002819391939FCFF0E09D
:1022B000E0E09CCFCF93DF930097E9F0FC013297E9
:1022C00013821282A091B202B091B302ED0130E00C
:1022D00020E01097A1F420813181820F931F20917B
:1022E000B0023091B1022817390709F061C0F093AC
:1022F000B102E093B002DF91CF910895EA01CE17C9
:10230000DF07E8F54A815B819E0141155105B1F770
:10231000E901FB83EA8349915991C40FD51FEC175A
:10232000FD0761F4808191810296840F951FE90178
:1023300099838883828193819B838A83F0E0E0E0A4
:1023400012968D919C9113970097B9F52D913C9120
:102350001197CD010296820F931F2091B002309108
:10236000B1022817390739F6309751F51092B302A8
:102370001092B202B093B102A093B002BCCFD3834B
:10238000C28340815181840F951FC817D90761F41A
:102390004E5F5F4F88819981480F591F5183408359
:1023A0008A819B81938382832115310509F0B0CF07
:1023B000F093B302E093B2029ECFFD01DC01C0CFE7
:1023C00013821282D7CFFC0188279927E8942191A4
:1023D0002032E9F3293010F02E30C8F32B3241F0CF
:1023E0002D3239F4689404C00E945112820F911D5D
:1023F000219120532A30C0F31EF4909581959F4F70
:1024000008951F93FC0199278827BC01E894119136
:102410001032E9F3193010F01E30C8F31B3251F0BE
:102420001D3249F4689406C00E943C12610F711D70
:10243000811D911D119110531A30B0F33EF4909507
:102440008095709561957F4F8F4F9F4F1F91089595
:10245000FB01DC0102C005900D9241505040D8F7BD
:102460000895BB274A3031F4992322F4BDE29095B8
:1024700081959F4F0C945A12592F482F372F262F92
:10248000660F771F881F991F660F771F881F991F78
:10249000620F731F841F951F660F771F881F991F78
:1024A00008957AE0979F902D879F802D910D11249C
:1024B0000895BB27FB015527AA27880F991FAA1F3C
:1024C000A41710F0A41B83955051B9F7A05DAA334F
:1024D00008F0A95DA193009779F7B111B19311921A
:1024E000CB010C947312DC01FC01672F71917723EF
:1024F000E1F7329704C07C916D9370836291AE17BF
:10250000BF07C8F30895052E97FB1EF400940E94A0
:102510009A1257FD07D00E94B51207FC03D04EF463
:102520000C949A1250954095309521953F4F4F4FFE
:102530005F4F089590958095709561957F4F8F4F6F
:102540009F4F08950E94D712A59F900DB49F900DA4
:10255000A49F800D911D11240895B7FF0C94A21221
:102560000E94A212821B930B0895A1E21A2EAA1BAD
:10257000BB1BFD010DC0AA1FBB1FEE1FFF1FA21733
:10258000B307E407F50720F0A21BB30BE40BF50B30
:10259000661F771F881F991F1A9469F760957095B9
:1025A000809590959B01AC01BD01CF010895A29F3C
:1025B000B001B39FC001A39F700D811D1124911D17
:1025C000B29F700D811D1124911D0895991B79E012
:1025D00004C0991F961708F0961B881F7A95C9F7B3
:1025E0008095089597FB072E16F4009407D077FD89
:1025F00009D00E94061307FC05D03EF49095819502
:102600009F4F0895709561957F4F0895AA1BBB1B3E
:1026100051E107C0AA1FBB1FA617B70710F0A61BE2
:10262000B70B881F991F5A95A9F780959095BC0103
:10263000CD010895EE0FFF1F0590F491E02D099450
:10264000FB01DC0102C001900D9241505040D8F7CF
:102650000895FB01DC018D91019080190110D9F3DF
:10266000990B0895FB01DC014150504048F0019066
:102670000D920020C9F701C01D9241505040E0F773
:10268000089511E0CAE7D1E004C0FE010E941A13C8
:102690002196CB37D107C9F7F894FFCF5569444A43
:1026A00065577A4458575974667A766E464278432D
:1026B0006B6F6D4F6862595763753377000000B4D4
:1026C00002800000000000AC020C023902F9026A2C
:1026D0000248025C0200000000F7030C02A7040B92
:1026E000026E048604DF030D0A00696E006F7574C4
:0E26F0000070776D00707500647700617700F0
:107E0000112484B714BE81FFF0D085E080938100F7
:107E100082E08093C00088E18093C10086E0809377
:107E2000C20080E18093C4008EE0C9D0259A86E02C
:107E300020E33CEF91E0309385002093840096BBD3
:107E4000B09BFECF1D9AA8958150A9F7CC24DD24C4
:107E500088248394B5E0AB2EA1E19A2EF3E0BF2EE7
:107E6000A2D0813461F49FD0082FAFD0023811F036
:107E7000013811F484E001C083E08DD089C08234E0
:107E800011F484E103C0853419F485E0A6D080C0E4
:107E9000853579F488D0E82EFF2485D0082F10E0AE
:107EA000102F00270E291F29000F111F8ED06801E7
:107EB0006FC0863521F484E090D080E0DECF843638
:107EC00009F040C070D06FD0082F6DD080E0C81688
:107ED00080E7D80618F4F601B7BEE895C0E0D1E017
:107EE00062D089930C17E1F7F0E0CF16F0E7DF06D8
:107EF00018F0F601B7BEE89568D007B600FCFDCFD4
:107F0000A601A0E0B1E02C9130E011968C91119780
:107F100090E0982F8827822B932B1296FA010C0160
:107F200087BEE89511244E5F5F4FF1E0A038BF0790
:107F300051F7F601A7BEE89507B600FCFDCF97BE46
:107F4000E89526C08437B1F42ED02DD0F82E2BD052
:107F50003CD0F601EF2C8F010F5F1F4F84911BD097
:107F6000EA94F801C1F70894C11CD11CFA94CF0C13
:107F7000D11C0EC0853739F428D08EE10CD085E9AC
:107F80000AD08FE07ACF813511F488E018D01DD067
:107F900080E101D065CF982F8091C00085FFFCCF94
:107FA0009093C60008958091C00087FFFCCF809118
:107FB000C00084FD01C0A8958091C6000895E0E648
:107FC000F0E098E1908380830895EDDF803219F02E
:107FD00088E0F5DFFFCF84E1DECF1F93182FE3DFCA
:107FE0001150E9F7F2DF1F91089580E0E8DFEE27F6
:047FF000FF270994CA
:027FFE00040479
:00000001FF
